{
  "contractName": "WhitelistedRole",
  "abi": [
    {
      "anonymous": false,
      "inputs": [
        {
          "indexed": true,
          "internalType": "address",
          "name": "account",
          "type": "address"
        }
      ],
      "name": "WhitelistAdminAdded",
      "type": "event"
    },
    {
      "anonymous": false,
      "inputs": [
        {
          "indexed": true,
          "internalType": "address",
          "name": "account",
          "type": "address"
        }
      ],
      "name": "WhitelistAdminRemoved",
      "type": "event"
    },
    {
      "anonymous": false,
      "inputs": [
        {
          "indexed": true,
          "internalType": "address",
          "name": "account",
          "type": "address"
        }
      ],
      "name": "WhitelistedAdded",
      "type": "event"
    },
    {
      "anonymous": false,
      "inputs": [
        {
          "indexed": true,
          "internalType": "address",
          "name": "account",
          "type": "address"
        }
      ],
      "name": "WhitelistedRemoved",
      "type": "event"
    },
    {
      "constant": false,
      "inputs": [
        {
          "internalType": "address",
          "name": "account",
          "type": "address"
        }
      ],
      "name": "addWhitelistAdmin",
      "outputs": [],
      "payable": false,
      "stateMutability": "nonpayable",
      "type": "function"
    },
    {
      "constant": true,
      "inputs": [
        {
          "internalType": "address",
          "name": "account",
          "type": "address"
        }
      ],
      "name": "isWhitelistAdmin",
      "outputs": [
        {
          "internalType": "bool",
          "name": "",
          "type": "bool"
        }
      ],
      "payable": false,
      "stateMutability": "view",
      "type": "function"
    },
    {
      "constant": false,
      "inputs": [],
      "name": "renounceWhitelistAdmin",
      "outputs": [],
      "payable": false,
      "stateMutability": "nonpayable",
      "type": "function"
    },
    {
      "constant": true,
      "inputs": [
        {
          "internalType": "address",
          "name": "account",
          "type": "address"
        }
      ],
      "name": "isWhitelisted",
      "outputs": [
        {
          "internalType": "bool",
          "name": "",
          "type": "bool"
        }
      ],
      "payable": false,
      "stateMutability": "view",
      "type": "function"
    },
    {
      "constant": false,
      "inputs": [
        {
          "internalType": "address",
          "name": "account",
          "type": "address"
        }
      ],
      "name": "addWhitelisted",
      "outputs": [],
      "payable": false,
      "stateMutability": "nonpayable",
      "type": "function"
    },
    {
      "constant": false,
      "inputs": [
        {
          "internalType": "address",
          "name": "account",
          "type": "address"
        }
      ],
      "name": "removeWhitelisted",
      "outputs": [],
      "payable": false,
      "stateMutability": "nonpayable",
      "type": "function"
    },
    {
      "constant": false,
      "inputs": [],
      "name": "renounceWhitelisted",
      "outputs": [],
      "payable": false,
      "stateMutability": "nonpayable",
      "type": "function"
    }
  ],
  "bytecode": "0x608060405261002061001561002560201b60201c565b61002d60201b60201c565b61024a565b600033905090565b61004581600061008b60201b6106191790919060201c565b8073ffffffffffffffffffffffffffffffffffffffff167f22380c05984257a1cb900161c713dd71d39e74820f1aea43bd3f1bdd2096129960405160405180910390a250565b61009b828261016c60201b60201c565b1561010e576040517f08c379a000000000000000000000000000000000000000000000000000000000815260040180806020018281038252601f8152602001807f526f6c65733a206163636f756e7420616c72656164792068617320726f6c650081525060200191505060405180910390fd5b60018260000160008373ffffffffffffffffffffffffffffffffffffffff1673ffffffffffffffffffffffffffffffffffffffff16815260200190815260200160002060006101000a81548160ff0219169083151502179055505050565b60008073ffffffffffffffffffffffffffffffffffffffff168273ffffffffffffffffffffffffffffffffffffffff1614156101f3576040517f08c379a0000000000000000000000000000000000000000000000000000000008152600401808060200182810382526022815260200180610ac26022913960400191505060405180910390fd5b8260000160008373ffffffffffffffffffffffffffffffffffffffff1673ffffffffffffffffffffffffffffffffffffffff16815260200190815260200160002060009054906101000a900460ff16905092915050565b610869806102596000396000f3fe608060405234801561001057600080fd5b506004361061007d5760003560e01c80634c5a628c1161005b5780634c5a628c146101665780637362d9c814610170578063bb5f747b146101b4578063d6cd9473146102105761007d565b806310154bad14610082578063291d9549146100c65780633af32abf1461010a575b600080fd5b6100c46004803603602081101561009857600080fd5b81019080803573ffffffffffffffffffffffffffffffffffffffff16906020019092919050505061021a565b005b610108600480360360208110156100dc57600080fd5b81019080803573ffffffffffffffffffffffffffffffffffffffff16906020019092919050505061028b565b005b61014c6004803603602081101561012057600080fd5b81019080803573ffffffffffffffffffffffffffffffffffffffff1690602001909291905050506102fc565b604051808215151515815260200191505060405180910390f35b61016e610319565b005b6101b26004803603602081101561018657600080fd5b81019080803573ffffffffffffffffffffffffffffffffffffffff16906020019092919050505061032b565b005b6101f6600480360360208110156101ca57600080fd5b81019080803573ffffffffffffffffffffffffffffffffffffffff16906020019092919050505061039c565b604051808215151515815260200191505060405180910390f35b6102186103b9565b005b61022a6102256103cb565b61039c565b61027f576040517f08c379a00000000000000000000000000000000000000000000000000000000081526004018080602001828103825260408152602001806107f56040913960400191505060405180910390fd5b610288816103d3565b50565b61029b6102966103cb565b61039c565b6102f0576040517f08c379a00000000000000000000000000000000000000000000000000000000081526004018080602001828103825260408152602001806107f56040913960400191505060405180910390fd5b6102f98161042d565b50565b600061031282600161048790919063ffffffff16565b9050919050565b6103296103246103cb565b610565565b565b61033b6103366103cb565b61039c565b610390576040517f08c379a00000000000000000000000000000000000000000000000000000000081526004018080602001828103825260408152602001806107f56040913960400191505060405180910390fd5b610399816105bf565b50565b60006103b282600061048790919063ffffffff16565b9050919050565b6103c96103c46103cb565b61042d565b565b600033905090565b6103e781600161061990919063ffffffff16565b8073ffffffffffffffffffffffffffffffffffffffff167fee1504a83b6d4a361f4c1dc78ab59bfa30d6a3b6612c403e86bb01ef2984295f60405160405180910390a250565b6104418160016106f490919063ffffffff16565b8073ffffffffffffffffffffffffffffffffffffffff167f270d9b30cf5b0793bbfd54c9d5b94aeb49462b8148399000265144a8722da6b660405160405180910390a250565b60008073ffffffffffffffffffffffffffffffffffffffff168273ffffffffffffffffffffffffffffffffffffffff16141561050e576040517f08c379a00000000000000000000000000000000000000000000000000000000081526004018080602001828103825260228152602001806107d36022913960400191505060405180910390fd5b8260000160008373ffffffffffffffffffffffffffffffffffffffff1673ffffffffffffffffffffffffffffffffffffffff16815260200190815260200160002060009054906101000a900460ff16905092915050565b6105798160006106f490919063ffffffff16565b8073ffffffffffffffffffffffffffffffffffffffff167f0a8eb35e5ca14b3d6f28e4abf2f128dbab231a58b56e89beb5d636115001e16560405160405180910390a250565b6105d381600061061990919063ffffffff16565b8073ffffffffffffffffffffffffffffffffffffffff167f22380c05984257a1cb900161c713dd71d39e74820f1aea43bd3f1bdd2096129960405160405180910390a250565b6106238282610487565b15610696576040517f08c379a000000000000000000000000000000000000000000000000000000000815260040180806020018281038252601f8152602001807f526f6c65733a206163636f756e7420616c72656164792068617320726f6c650081525060200191505060405180910390fd5b60018260000160008373ffffffffffffffffffffffffffffffffffffffff1673ffffffffffffffffffffffffffffffffffffffff16815260200190815260200160002060006101000a81548160ff0219169083151502179055505050565b6106fe8282610487565b610753576040517f08c379a00000000000000000000000000000000000000000000000000000000081526004018080602001828103825260218152602001806107b26021913960400191505060405180910390fd5b60008260000160008373ffffffffffffffffffffffffffffffffffffffff1673ffffffffffffffffffffffffffffffffffffffff16815260200190815260200160002060006101000a81548160ff021916908315150217905550505056fe526f6c65733a206163636f756e7420646f6573206e6f74206861766520726f6c65526f6c65733a206163636f756e7420697320746865207a65726f206164647265737357686974656c69737441646d696e526f6c653a2063616c6c657220646f6573206e6f742068617665207468652057686974656c69737441646d696e20726f6c65a265627a7a72315820ef9a703a3453c362807d37a13a37935b97604c8a475be7017bacb8ed067d2a4064736f6c634300050c0032526f6c65733a206163636f756e7420697320746865207a65726f2061646472657373",
  "source": "pragma solidity ^0.5.0;\n\nimport \"./Context.sol\";\nimport \"./Roles.sol\";\nimport \"./WhitelistAdminRole.sol\";\n\n/**\n * @title WhitelistedRole\n * @dev Whitelisted accounts have been approved by a WhitelistAdmin to perform certain actions (e.g. participate in a\n * crowdsale). This role is special in that the only accounts that can add it are WhitelistAdmins (who can also remove\n * it), and not Whitelisteds themselves.\n */\ncontract WhitelistedRole is Context, WhitelistAdminRole {\n    using Roles for Roles.Role;\n\n    event WhitelistedAdded(address indexed account);\n    event WhitelistedRemoved(address indexed account);\n\n    Roles.Role private _whitelisteds;\n\n    modifier onlyWhitelisted() {\n        require(isWhitelisted(_msgSender()), \"WhitelistedRole: caller does not have the Whitelisted role\");\n        _;\n    }\n\n    function isWhitelisted(address account) public view returns (bool) {\n        return _whitelisteds.has(account);\n    }\n\n    function addWhitelisted(address account) public onlyWhitelistAdmin {\n        _addWhitelisted(account);\n    }\n\n    function removeWhitelisted(address account) public onlyWhitelistAdmin {\n        _removeWhitelisted(account);\n    }\n\n    function renounceWhitelisted() public {\n        _removeWhitelisted(_msgSender());\n    }\n\n    function _addWhitelisted(address account) internal {\n        _whitelisteds.add(account);\n        emit WhitelistedAdded(account);\n    }\n\n    function _removeWhitelisted(address account) internal {\n        _whitelisteds.remove(account);\n        emit WhitelistedRemoved(account);\n    }\n}\n",
  "sourcePath": "/home/clement/ERC721/contracts/WhitelistedRole.sol",
  "compiler": {
    "name": "solc",
    "version": "0.5.12+commit.7709ece9.Emscripten.clang"
  },
  "schemaVersion": "3.0.19",
  "updatedAt": "2019-12-03T19:46:32.080Z",
  "devdoc": {
    "details": "Whitelisted accounts have been approved by a WhitelistAdmin to perform certain actions (e.g. participate in a crowdsale). This role is special in that the only accounts that can add it are WhitelistAdmins (who can also remove it), and not Whitelisteds themselves.",
    "methods": {},
    "title": "WhitelistedRole"
  },
  "userdoc": {
    "methods": {}
  }
}